:03000000020B747C
:0C0B7400787FE4F6D8FD758112020BBBFF
:1000260062BC00236120626F206C756F00000000C7
:1000360000000000000000006A69207169207265F6
:100046006E00000000000000000000007169616E93
:10005600206A696E00000000000000000000000039
:10006600686F7520747569000000000000000000CC
:10007600000000007A756F207A6875616E000000D6
:100086000000000000000000796F75207A68756135
:100096006E000000000000000000000074696E673A
:1000A600207A6869000000000000000000000000DF
:1000B6006A696120737500000000000000000000FE
:1000C600000000006A69616E207375000000000080
:1000D60000000000000000006B61692064656E6727
:1000E6000000000000000000000000006775616E5F
:1000F6002064656E6700000000000000000000003C
:100106006865206A697500000000000000000000B4
:10011600000000006865206865206461000000003A
:1001260000000000000000006469616E206E616FCF
:100136000000000000000000000000007A68752042
:1001460062616E0000000000000000000000000078
:100156006E65692063756E207469616F000000002A
:100166000000000079696E672070616E0000000073
:1001760000000000000000006B61692070616F00E4
:10018600000000000000000000000000646120661E
:100196006569206A69000000000000000000000098
:1001A6006865206A69750000000000000000000014
:1001B600000000007A686F6E672078696E6700003D
:1001C600000000000000000077656920776569205F
:1001D6007765690000000000000000006E69206875
:1001E600616F000000000000000000000000000039
:1001F60000000000000000000000000000000000F9
:1002060000000000000000000000000000000000E8
:1002160000000000000000000000000000000000D8
:1002260000000000000000000000000000000000C8
:1002360000000000000000000000000000000000B8
:1002460000000000000000000000000000000000A8
:100256000000000000000000000000000000000098
:100266000000000000000000000000000000000088
:100276000000000000000000000000000000000078
:100286000000000000000000000000000000000068
:100296000000000000000000000000000000000058
:1002A6000000000000000000000000000000000048
:1002B6000000000000000000000000000000000038
:1002C6000000000000000000000000000000000028
:1002D6000000000000000000000000000000000018
:1002E60060230000000102030405060708090A0B43
:1002F6000C0D0E0F101112131415161718191A1BC0
:070306001C1D1E1F20212217
:100D7900D2B57F057E007D007C00120E87C2B57F4B
:100D8900057E007D007C00120E87D2B57F057E00AE
:100D99007D007C00120E87C2A17F057E007D007C4C
:100DA90000120E87D2A17F057E007D007C00020E15
:010DB90087B2
:1009A7007F06120EFB7D357F17120EF07F0A7E0041
:1009B7007D007C00120E877F06120EFB7D037F8968
:1009C700120EF07F057E007D007C00120E877D43AE
:1009D7007FCF120EF07F057E007D007C00120E8710
:1009E7007D027FCB120EF07D0A7F11120EF0E4FD1F
:1009F7007F1E120EF07D3F7F19120EF07D487F1B80
:100A0700120EF07D1F7F1D120EF07F0A7E007D0003
:100A17007C00120E877D047FCD120EF07F057E00CD
:100A27007D007C00120E87E4FD7FB9120EF07D4F2A
:0C0A37007FCF120EF07DFF7F6F020EF0EB
:100C7A001209A7E4FD7FBD120EF07D487F17120E00
:100C8A00F07F0A7E007D007C00120E877D807F3C0B
:100C9A00120EF07D077F3E120EF07DFF7F38120E96
:100CAA00F07D077F3A120EF0E4FD7F40120EF07DD0
:100CBA00087F42120EF0E4FD7F44120EF07D087F99
:0F0CCA0046120EF07F017E007D007C00020E8737
:100ADD00E4900305F0C2A87F2B120EFB7810A60739
:100AED00E4FD7F29120EF0E4FD7F02120EF0781066
:100AFD00E630E42D7FB2120EFBEF642170237FBF31
:100B0D00120EFBBF351B7FBA120EFB900305EFF0E3
:100B1D00D39400400CE0D3940450067811761080E5
:100B2D000478117611E4FD7F2B120EF0E4FD7F1C8D
:100B3D00120EF0E4FD7F29120EF0E4FD7F02120E7D
:100B4D00F0E4FD7F2B120EF0E4FD7FBA120EF0E4FF
:100B5D00FD7FBC120EF07D017F08120EF0E4FD7FCB
:060B6D0008120EF0D2A8F0
:010B7300225F
:100CD900E49002F6F0A3F09002F6F0120C7A7F325B
:100CE9007E007D007C00120E8712073AEF700280A9
:100CF900117F0A7E007D007C00120E87120A43EFE5
:100D09007010120D797F327E007D007C00120E87F3
:100D190080089002F77401F0800C9002F6E004F06C
:0B0D2900E0C3940540B59002F7E0FF26
:010D3400229C
:100DF500E49002FCF09002FBF07FB2120EFBBF21E3
:100E0500089002FC7401F080177F0A7E007D007C4B
:100E150000120E879002FBE004F0E0C3940A40D96B
:050E25009002FCE0FF5B
:010E2A0022A5
:100A4300C2A87D557F35120EF07D097F1C120EF072
:100A53007D207FBD120EF07D017F08120EF07F0115
:100A63007E007D007C00120E87E4FD7F08120EF0ED
:100A73007F017E007D007C00120E87120DF5EF7062
:100A830002FF227D0A7FB8120EF07D0B7F1C120E2F
:100A9300F07DFF7FB2120EF07F017E007D007C00AF
:100AA300120E877D067F37120EF07F017E007D00D8
:100AB3007C00120E877D067F37120EF07F057E00C5
:100AC3007D007C00120E877D107F29120EF0E4FD5D
:0A0AD3007FBD120EF0D2A87F0122B1
:10073A009002F97401F0E49002F8F0120DF5EF70EE
:10074A00079002F9F00208149002F8E02400F582FA
:10075A00E43400F583E0FD7FC1120EF0E4FD7FC3AF
:10076A00120EF07D047F08120EF07F017E007D00DC
:10077A007C00120E87E4FD7F08120EF07F017E00D6
:10078A007D007C00120E87E49002FAF09002FAE0F3
:10079A00FFC39414504D9002F8E0FE75F014A4249F
:1007AA0023F582E5F03400F583E5822FF582E435FE
:1007BA0083F583E0602D9002FAE0FF75F014EEA451
:1007CA002423F582E5F03400F583E5822FF582E4EF
:1007DA003583F583E0FD7F05120EF09002FAE004FE
:1007EA00F080A99002FAE0FD7FB9120EF07DFF7F3A
:1007FA00B2120EF07D047F37120EF09002F8E00478
:0F080A00F0E0C3942350030207459002F9E0FF8A
:0108190022BC
:060F06007FC5120EFB2264
:1008E700300D0A00310D0A00320D0A00330D0A00DF
:1008F700340D0A00350D0A00360D0A00370D0A00BF
:10090700380D0A00390D0A0031300D0A0031310D5A
:100917000A0031320D0A0031330D0A0031340D0A55
:100927000031350D0A0031360D0A0031370D0A0046
:1009370031380D0A0031390D0A0032300D0A003204
:10094700310D0A0032320D0A0032330D0A003234FB
:100957000D0A0032350D0A0032360D0A0032370D06
:100967000A0032380D0A0032390D0A0033300D0AF9
:100977000033310D0A0033320D0A0033330D0A00FC
:1009870033340D0A004E4F4E450D0A00000000009B
:100997000000000000000000000000000000000050
:03030D00011100DB
:10081A00E49002DFF0120006120EAC120D79120EED
:10082A005EE47811F67811E6600D14602A24F1600E
:10083A001624DF701E801C78117601120CD9EF7015
:10084A0016781176318010120F067812EFF612051B
:0E085A008C8000E47811F690031CE0B401C716
:10086800900308E024D09002E1F078E27C027D0158
:100878007BFF7A0979937E007F141203EEE49003DC
:100888001CF078E27C027D017B017A037909FE7F06
:10089800131203EE9002E1E075F014A42423F97416
:1008A8000035F0A801FC7D017B017A0279E27E0027
:1008B8007F141203EE7E007F147D007B017A03799A
:1008C80008120492120CD99002E0EFF09002E0E0D6
:0F08D800600302082F12073A9002E0EFF080ED64
:10000600B2C2120ED8B2C2120ED8B2C2120ED8B2F4
:0C001600C2120ED8B2C2120ED8B2C22222
:100EAC007580FF7590FF75A0FF75B0FF75C0FF755D
:0E0EBC0092FFE4F591C2C3D289D2A8D2AF2230
:0A0EE50000007F057E49DEFEDFFC01
:010EEF0022E0
:060E87009002FD1204863A
:100E8D00E4900301F0A3F0A3F0A3F09002FD74FF32
:0E0E9D00120453EC4D4E4F6005120EE580ED31
:010EAB002224
:0C0ED8007F117ED07D1BDDFEDEFCDFFA0A
:010EE40022EB
:03000300020DBA31
:100DBA00C0E0C0F0C083C082C0D075D000C000C0FF
:100DCA0001C002C003C004C005C006C007120ADD84
:100DDA00D007D006D005D004D003D002D001D0006D
:0B0DEA00D0D0D082D083D0F0D0E03217
:10058C00EFB42300400302073090059CF828287331
:10059C0002060502060E02061702062002062902B2
:1005AC00063202063B02064402064D0206560206BD
:1005BC005F02066802067102067A02068302068C46
:1005CC0002069502069E0206A70206B00206B802B3
:1005DC0006C00206C80206D00206D80206E00206D1
:1005EC00E80206F00206F8020700020708020710EC
:1005FC000207180207200207287BFF7A0879E70216
:10060C0007367BFF7A0879EB0207367BFF7A08798D
:10061C00EF0207367BFF7A0879F30207367BFF7A05
:10062C000879F70207367BFF7A0879FB0207367BDD
:10063C00FF7A0879FF0207367BFF7A0979030207F4
:10064C00367BFF7A0979070207367BFF7A09790B2B
:10065C000207367BFF7A09790F0207367BFF7A098E
:10066C0079140207367BFF7A0979190207367BFF6A
:10067C007A09791E0207367BFF7A0979230207363D
:10068C007BFF7A0979280207367BFF7A09792D02DC
:10069C0007367BFF7A0979320207367BFF7A0979B4
:1006AC00370207367BFF7A09793C807E7BFF7A091B
:1006BC00794180767BFF7A097946806E7BFF7A09D7
:1006CC00794B80667BFF7A097950805E7BFF7A09D3
:1006DC00795580567BFF7A09795A804E7BFF7A09CF
:1006EC00795F80467BFF7A097964803E7BFF7A09CB
:1006FC00796980367BFF7A09796E802E7BFF7A09C7
:10070C00797380267BFF7A097978801E7BFF7A09C2
:10071C00797D80167BFF7A097982800E7BFF7A09BE
:0E072C00798780067BFF7A09798C120E2B22CA
:0B0EF000908100EFF0908000EDF022F8
:0B0EFB00908100EFF0908000E0FF22EB
:0D031000420306258041031D0041031C002F
:100E5E00759850758920900306E0FEA3E0FBAA0664
:100E6E00E4F9F8FF7EE1FDFC120D351204438F8B81
:090E7E008F8DD28ED2ACD2AF22CE
:03002300020C00CC
:100C0000C0E0C083C082C0D075D00830981FC298A1
:100C100090031DE0FF04F074082FF582E43403F51F
:100C200083E599F090031DE0B41402E4F090031DF5
:100C3000E0FF2406F582E43403F583E0B40D32745A
:100C4000072FF582E43403F583E0B40A2490031DF2
:100C5000E02406F582E43403F583E4F074072FF50D
:100C600082E43403F583E4F090031DF090031C0448
:0A0C7000F0D0D0D082D083D0E03263
:0E0ECA00C2ACC2998F993099FDC299D2AC2268
:100E2B009002F6EBF0A3EAF0A3E9F09002F6E0FBF8
:100E3B00A3E0FAA3E0F912041460179002F6A3E4FE
:100E4B0075F00112042DA9F0FA120414FF120ECA48
:030E5B0080D92219
:100B800002081AE493A3F8E493A34003F68001F269
:100B900008DFF48029E493A3F85407240CC8C33376
:100BA000C4540F4420C8834004F456800146F6DF45
:100BB000E4800B0102040810204080900026E47EAF
:100BC000019360BCA3FF543F30E509541FFEE4933A
:100BD000A360010ECF54C025E060A840B8E493A301
:100BE000FAE493A3F8E493A3C8C582C8CAC583CA2C
:100BF000F0A3C8C582C8CAC583CADFE9DEE780BEE4
:01031D0000DF
:10031E00E709F608DFFA8046E709F208DFFA803EC1
:10032E0088828C83E709F0A3DFFA8032E309F608AE
:10033E00DFFA8078E309F208DFFA807088828C8316
:10034E00E309F0A3DFFA806489828A83E0A3F608CA
:10035E00DFFA805889828A83E0A3F208DFFA804CA4
:10036E0080D280FA80C680D4806980F2803380107B
:10037E0080A680EA809A80A880DA80E280CA8033E4
:10038E0089828A83ECFAE493A3C8C582C8CCC5835C
:10039E00CCF0A3C8C582C8CCC583CCDFE9DEE7802C
:1003AE000D89828A83E493A3F608DFF9ECFAA9F0AB
:1003BE00EDFB2289828A83ECFAE0A3C8C582C8CC01
:1003CE00C583CCF0A3C8C582C8CCC583CCDFEADE1A
:1003DE00E880DB89828A83E493A3F208DFF980CC7C
:1003EE0088F0EF60010E4E60C388F0ED2402B40475
:1003FE000050B9F582EB2402B4040050AF2323451C
:06040E00822390036E73CF
:10041400BB010689828A83E0225002E722BBFE02E6
:09042400E32289828A83E4932219
:10042D00A3F8E0C5F025F0F0E58215827002158382
:06043D00E0C838F0E822DF
:100D3500C2D5E830E70FB2D5E4C39BFBE49AFAE4E9
:100D450099F9E498F8EC30E717B2D5120D6B120457
:100D5500FAE4C39BFBE49AFAE499F9E498F8800372
:100D65001204FA30D50DE4C39FFFE49EFEE49DFD19
:040D7500E49CFC22DC
:0E044300C3E49FFFE49EFEE49DFDE49CFC22CA
:100451007401FF3395E0FEFDFCA3A3A3E0CF2FF0D1
:10046100E582158270021583E0CE3EF0E5821582A9
:1004710070021583E0CD3DF0E5821582700215838F
:05048100E0CC3CF0227C
:0C048600ECF0A3EDF0A3EEF0A3EFF022E9
:10049200EF4E6012EF60010EEDBB010B89828A8381
:1004A200F0A3DFFCDEFA2289F05007F709DFFCA98E
:0C04B200F022BBFEFCF309DFFCA9F022E5
:1004BE0075F008758200EF2FFFEE33FECD33CDCCF5
:1004CE0033CCC58233C5829BED9AEC99E582984078
:1004DE000CF582EE9BFEED9AFDEC99FC0FD5F0D655
:1004EE00E4CEFBE4CDFAE4CCF9A88222B800C1B97F
:1004FE000059BA002DEC8BF084CFCECDFCE5F0CBBD
:10050E00F97818EF2FFFEE33FEED33FDEC33FCEBF5
:10051E0033FB10D703994004EB99FB0FD8E5E4F9B0
:10052E00FA227818EF2FFFEE33FEED33FDEC33FC9D
:10053E00C933C910D7059BE99A4007EC9BFCE99A91
:10054E00F90FD8E0E4C9FAE4CCFB2275F010EF2FD6
:10055E00FFEE33FEED33FDCC33CCC833C810D707D6
:10056E009BEC9AE899400AED9BFDEC9AFCE899F811
:0E057E000FD5F0DAE4CDFBE4CCFAE4C8F922A4
:00000001FF
