:03000000020B7E72
:0C0B7E00787FE4F6D8FD758112020BC5EB
:1000260062BC00236120626F206C756F00000000C7
:1000360000000000000000006A69207169207265F6
:100046006E00000000000000000000007169616E93
:10005600206A696E00000000000000000000000039
:10006600686F7520747569000000000000000000CC
:10007600000000007A756F207A6875616E000000D6
:100086000000000000000000796F75207A68756135
:100096006E000000000000000000000074696E673A
:1000A600207A6869000000000000000000000000DF
:1000B6006A696120737500000000000000000000FE
:1000C600000000006A69616E207375000000000080
:1000D60000000000000000006B61692064656E6727
:1000E6000000000000000000000000006775616E5F
:1000F6002064656E6700000000000000000000003C
:100106006865206A697500000000000000000000B4
:10011600000000006865206865206461000000003A
:1001260000000000000000006469616E206E616FCF
:100136000000000000000000000000007A68752042
:1001460062616E0000000000000000000000000078
:100156006E65692063756E207469616F000000002A
:100166000000000079696E672070616E0000000073
:1001760000000000000000006B61692070616F00E4
:10018600000000000000000000000000646120661E
:100196006569206A69000000000000000000000098
:1001A6006865206A69750000000000000000000014
:1001B600000000007A686F6E672078696E6700003D
:1001C600000000000000000077656920776569205F
:1001D6007765690000000000000000006E69206875
:1001E600616F000000000000000000000000000039
:1001F60000000000000000000000000000000000F9
:1002060000000000000000000000000000000000E8
:1002160000000000000000000000000000000000D8
:1002260000000000000000000000000000000000C8
:1002360000000000000000000000000000000000B8
:1002460000000000000000000000000000000000A8
:100256000000000000000000000000000000000098
:100266000000000000000000000000000000000088
:100276000000000000000000000000000000000078
:100286000000000000000000000000000000000068
:100296000000000000000000000000000000000058
:1002A6000000000000000000000000000000000048
:1002B6000000000000000000000000000000000038
:1002C6000000000000000000000000000000000028
:1002D6000000000000000000000000000000000018
:1002E60060230000000102030405060708090A0B43
:1002F6000C0D0E0F101112131415161718191A1BC0
:070306001C1D1E1F20212217
:100D8300D2B57F057E007D007C00120E91C2B57F37
:100D9300057E007D007C00120E91D2B57F057E009A
:100DA3007D007C00120E91C2A17F057E007D007C38
:100DB30000120E91D2A17F057E007D007C00020E01
:010DC300919E
:1009B1007F06120F057D357F17120EFA7F0A7E0022
:1009C1007D007C00120E917F06120F057D037F8949
:1009D100120EFA7F057E007D007C00120E917D4390
:1009E1007FCF120EFA7F057E007D007C00120E91F2
:1009F1007D027FCB120EFA7D0A7F11120EFAE4FD01
:100A01007F1E120EFA7D3F7F19120EFA7D487F1B61
:100A1100120EFA7D1F7F1D120EFA7F0A7E007D00E5
:100A21007C00120E917D047FCD120EFA7F057E00AF
:100A31007D007C00120E91E4FD7FB9120EFA7D4F0C
:0C0A41007FCF120EFA7DFF7F6F020EFACD
:100C84001209B1E4FD7FBD120EFA7D487F17120EE2
:100C9400FA7F0A7E007D007C00120E917D807F3CED
:100CA400120EFA7D077F3E120EFA7DFF7F38120E78
:100CB400FA7D077F3A120EFAE4FD7F40120EFA7DA8
:100CC400087F42120EFAE4FD7F44120EFA7D087F7B
:0F0CD40046120EFA7F017E007D007C00020E9119
:100AE700E4900305F0C2A87F2B120F057810A60724
:100AF700E4FD7F29120EFAE4FD7F02120EFA781048
:100B0700E630E42D7FB2120F05EF642170237FBF1B
:100B1700120F05BF351B7FBA120F05900305EFF0C3
:100B2700D39400400CE0D3940450067811761080DB
:100B37000478117611E4FD7F2B120EFAE4FD7F1C79
:100B4700120EFAE4FD7F29120EFAE4FD7F02120E5F
:100B5700FAE4FD7F2B120EFAE4FD7FBA120EFAE4D7
:100B6700FD7FBC120EFA7D017F08120EFAE4FD7FAD
:060B770008120EFAD2A8DC
:010B7D002255
:100CE300E49002F6F0A3F09002F6F0120C847F3247
:100CF3007E007D007C00120E9112073AEF70028095
:100D0300117F0A7E007D007C00120E91120A4DEFC6
:100D13007010120D837F327E007D007C00120E91D5
:100D230080089002F77401F0800C9002F6E004F062
:0B0D3300E0C3940540B59002F7E0FF1C
:010D3E002292
:100DFF00E49002FCF09002FBF07FB2120F05BF21CE
:100E0F00089002FC7401F080177F0A7E007D007C41
:100E1F0000120E919002FBE004F0E0C3940A40D957
:050E2F009002FCE0FF51
:010E3400229B
:100A4D00C2A87D557F35120EFA7D097F1C120EFA54
:100A5D007D207FBD120EFA7D017F08120EFA7F01F7
:100A6D007E007D007C00120E91E4FD7F08120EFACF
:100A7D007F017E007D007C00120E91120DFFEF7044
:100A8D0002FF227D0A7FB8120EFA7D0B7F1C120E1B
:100A9D00FA7DFF7FB2120EFA7F017E007D007C0091
:100AAD00120E917D067F37120EFA7F017E007D00BA
:100ABD007C00120E917D067F37120EFA7F057E00A7
:100ACD007D007C00120E917D107F29120EFAE4FD3F
:0A0ADD007FBD120EFAD2A87F01229D
:10073A009002F97401F0E49002F8F0120DFFEF70E4
:10074A00079002F9F00208149002F8E02400F582FA
:10075A00E43400F583E0FD7FC1120EFAE4FD7FC3A5
:10076A00120EFA7D047F08120EFA7F017E007D00C8
:10077A007C00120E91E4FD7F08120EFA7F017E00C2
:10078A007D007C00120E91E49002FAF09002FAE0E9
:10079A00FFC39414504D9002F8E0FE75F014A4249F
:1007AA0023F582E5F03400F583E5822FF582E435FE
:1007BA0083F583E0602D9002FAE0FF75F014EEA451
:1007CA002423F582E5F03400F583E5822FF582E4EF
:1007DA003583F583E0FD7F05120EFA9002FAE004F4
:1007EA00F080A99002FAE0FD7FB9120EFA7DFF7F30
:1007FA00B2120EFA7D047F37120EFA9002F8E00464
:0F080A00F0E0C3942350030207459002F9E0FF8A
:0108190022BC
:060F10007FC5120F05224F
:1008F100300D0A00310D0A00320D0A00330D0A00D5
:10090100340D0A00350D0A00360D0A00370D0A00B4
:10091100380D0A00390D0A0031300D0A0031310D50
:100921000A0031320D0A0031330D0A0031340D0A4B
:100931000031350D0A0031360D0A0031370D0A003C
:1009410031380D0A0031390D0A0032300D0A0032FA
:10095100310D0A0032320D0A0032330D0A003234F1
:100961000D0A0032350D0A0032360D0A0032370DFC
:100971000A0032380D0A0032390D0A0033300D0AEF
:100981000033310D0A0033320D0A0033330D0A00F2
:1009910033340D0A004E4F4E450D0A000000000091
:1009A1000000000000000000000000000000000046
:03030D00011100DB
:10081A00E49002DFF0120006120EB6120D83120ED9
:10082A0068E47811F67811E6600D14602A24F16004
:10083A001624DF701E801C78117601120CE3EF700B
:10084A0016781176318010120F107812EFF6120511
:0E085A008C8000E47811F690031CE0B401C716
:10086800900308E024D09002E1F078E27C027D0158
:100878007BFF7A09799D7E007F141203EEE49003D2
:100888001CF07B017A037909120E3578E27C027D2F
:10089800017B017A0379097E007F131203EE90022F
:1008A800E1E075F014A42423F9740035F0A801FCE4
:1008B8007D017B017A0279E27E007F141203EE7ECD
:1008C800007F147D007B017A037908120492120CD0
:1008D800E39002E0EFF09002E0E0600302082F12DC
:0908E800073A9002E0EFF080ED08
:10000600B2C2120EE2B2C2120EE2B2C2120EE2B2D6
:0C001600C2120EE2B2C2120EE2B2C2220E
:100EB6007580FF7590FF75A0FF75B0FF75C0FF7553
:0E0EC60092FFE4F591C2C3D289D2A8D2AF2226
:0A0EEF0000007F057E49DEFEDFFCF7
:010EF90022D6
:060E91009002FD12048630
:100E9700E4900301F0A3F0A3F0A3F09002FD74FF28
:0E0EA700120453EC4D4E4F6005120EEF80ED1D
:010EB500221A
:0C0EE2007F117ED07D1BDDFEDEFCDFFA00
:010EEE0022E1
:03000300020DC427
:100DC400C0E0C0F0C083C082C0D075D000C000C0F5
:100DD40001C002C003C004C005C006C007120AE770
:100DE400D007D006D005D004D003D002D001D00063
:0B0DF400D0D0D082D083D0F0D0E0320D
:10058C00EFB42300400302073090059CF828287331
:10059C0002060502060E02061702062002062902B2
:1005AC00063202063B02064402064D0206560206BD
:1005BC005F02066802067102067A02068302068C46
:1005CC0002069502069E0206A70206B00206B802B3
:1005DC0006C00206C80206D00206D80206E00206D1
:1005EC00E80206F00206F8020700020708020710EC
:1005FC000207180207200207287BFF7A0879F1020C
:10060C0007367BFF7A0879F50207367BFF7A087983
:10061C00F90207367BFF7A0879FD0207367BFF7AF1
:10062C000979010207367BFF7A0979050207367BC7
:10063C00FF7A0979090207367BFF7A09790D0207DF
:10064C00367BFF7A0979110207367BFF7A09791517
:10065C000207367BFF7A0979190207367BFF7A0984
:10066C00791E0207367BFF7A0979230207367BFF56
:10067C007A0979280207367BFF7A09792D02073629
:10068C007BFF7A0979320207367BFF7A09793702C8
:10069C0007367BFF7A09793C0207367BFF7A0979AA
:1006AC00410207367BFF7A097946807E7BFF7A0907
:1006BC00794B80767BFF7A097950806E7BFF7A09C3
:1006CC00795580667BFF7A09795A805E7BFF7A09BF
:1006DC00795F80567BFF7A097964804E7BFF7A09BB
:1006EC00796980467BFF7A09796E803E7BFF7A09B7
:1006FC00797380367BFF7A097978802E7BFF7A09B3
:10070C00797D80267BFF7A097982801E7BFF7A09AE
:10071C00798780167BFF7A09798C800E7BFF7A09AA
:0E072C00799180067BFF7A097996120E3522AC
:0B0EFA00908100EFF0908000EDF022EE
:0B0F0500908100EFF0908000E0FF22E0
:0D031000420306258041031D0041031C002F
:100E6800759850758920900306E0FEA3E0FBAA065A
:100E7800E4F9F8FF7EE1FDFC120D3F1204438F8B6D
:090E88008F8DD28ED2ACD2AF22C4
:03002300020C0AC2
:100C0A00C0E0C083C082C0D075D00830981FC29897
:100C1A0090031DE0FF04F074082FF582E43403F515
:100C2A0083E599F090031DE0B41402E4F090031DEB
:100C3A00E0FF2406F582E43403F583E0B40D327450
:100C4A00072FF582E43403F583E0B40A2490031DE8
:100C5A00E02406F582E43403F583E4F074072FF503
:100C6A0082E43403F583E4F090031DF090031C043E
:0A0C7A00F0D0D0D082D083D0E03259
:0E0ED400C2ACC2998F993099FDC299D2AC225E
:100E35009002F6EBF0A3EAF0A3E9F09002F6E0FBEE
:100E4500A3E0FAA3E0F912041460179002F6A3E4F4
:100E550075F00112042DA9F0FA120414FF120ED434
:030E650080D9220F
:100B8A0002081AE493A3F8E493A34003F68001F25F
:100B9A0008DFF48029E493A3F85407240CC8C3336C
:100BAA00C4540F4420C8834004F456800146F6DF3B
:100BBA00E4800B0102040810204080900026E47EA5
:100BCA00019360BCA3FF543F30E509541FFEE49330
:100BDA00A360010ECF54C025E060A840B8E493A3F7
:100BEA00FAE493A3F8E493A3C8C582C8CAC583CA22
:100BFA00F0A3C8C582C8CAC583CADFE9DEE780BEDA
:01031D0000DF
:10031E00E709F608DFFA8046E709F208DFFA803EC1
:10032E0088828C83E709F0A3DFFA8032E309F608AE
:10033E00DFFA8078E309F208DFFA807088828C8316
:10034E00E309F0A3DFFA806489828A83E0A3F608CA
:10035E00DFFA805889828A83E0A3F208DFFA804CA4
:10036E0080D280FA80C680D4806980F2803380107B
:10037E0080A680EA809A80A880DA80E280CA8033E4
:10038E0089828A83ECFAE493A3C8C582C8CCC5835C
:10039E00CCF0A3C8C582C8CCC583CCDFE9DEE7802C
:1003AE000D89828A83E493A3F608DFF9ECFAA9F0AB
:1003BE00EDFB2289828A83ECFAE0A3C8C582C8CC01
:1003CE00C583CCF0A3C8C582C8CCC583CCDFEADE1A
:1003DE00E880DB89828A83E493A3F208DFF980CC7C
:1003EE0088F0EF60010E4E60C388F0ED2402B40475
:1003FE000050B9F582EB2402B4040050AF2323451C
:06040E00822390036E73CF
:10041400BB010689828A83E0225002E722BBFE02E6
:09042400E32289828A83E4932219
:10042D00A3F8E0C5F025F0F0E58215827002158382
:06043D00E0C838F0E822DF
:100D3F00C2D5E830E70FB2D5E4C39BFBE49AFAE4DF
:100D4F0099F9E498F8EC30E717B2D5120D75120443
:100D5F00FAE4C39BFBE49AFAE499F9E498F8800368
:100D6F001204FA30D50DE4C39FFFE49EFEE49DFD0F
:040D7F00E49CFC22D2
:0E044300C3E49FFFE49EFEE49DFDE49CFC22CA
:100451007401FF3395E0FEFDFCA3A3A3E0CF2FF0D1
:10046100E582158270021583E0CE3EF0E5821582A9
:1004710070021583E0CD3DF0E5821582700215838F
:05048100E0CC3CF0227C
:0C048600ECF0A3EDF0A3EEF0A3EFF022E9
:10049200EF4E6012EF60010EEDBB010B89828A8381
:1004A200F0A3DFFCDEFA2289F05007F709DFFCA98E
:0C04B200F022BBFEFCF309DFFCA9F022E5
:1004BE0075F008758200EF2FFFEE33FECD33CDCCF5
:1004CE0033CCC58233C5829BED9AEC99E582984078
:1004DE000CF582EE9BFEED9AFDEC99FC0FD5F0D655
:1004EE00E4CEFBE4CDFAE4CCF9A88222B800C1B97F
:1004FE000059BA002DEC8BF084CFCECDFCE5F0CBBD
:10050E00F97818EF2FFFEE33FEED33FDEC33FCEBF5
:10051E0033FB10D703994004EB99FB0FD8E5E4F9B0
:10052E00FA227818EF2FFFEE33FEED33FDEC33FC9D
:10053E00C933C910D7059BE99A4007EC9BFCE99A91
:10054E00F90FD8E0E4C9FAE4CCFB2275F010EF2FD6
:10055E00FFEE33FEED33FDCC33CCC833C810D707D6
:10056E009BEC9AE899400AED9BFDEC9AFCE899F811
:0E057E000FD5F0DAE4CDFBE4CCFAE4C8F922A4
:00000001FF
